:1000000000000420F56400001D650000C9380000F0
:100010002165000023650000256500000000000048
:100020000000000000000000000000002765000044
:1000300029650000000000002B6500002D65000010
:10004000295F00004D780000D56300002F65000097
:100050002F6500002F650000CD5C00002F650000BB
:10006000F97A00002F6500002F6500002F65000061
:100070002F6500002F6500002F6500002F65000030
:100080002F650000B14F00002F6500002F650000B4
:100090002F6500002F6500002F6500002F65000010
:1000A0002F6500002F6500002F6500002F65000000
:1000B0002F6500002F650000000000000000000018
:1000C0002F6500002F6500002F6500002F650000E0
:1000D0002F6500002F6500002F6500000000000064
:1000E0000000000000000000000000000000000010
:1000F0000000000000000000000000000000000000
:1001000000000000000000000000000000000000EF
:1001100000000000000000000000000000000000DF
:1001200000000000000000000000000000000000CF
:1001300000000000000000000000000000000000BF
:1001400000000000000000000000000000000000AF
:10015000000000000000000000000000000000009F
:10016000000000000000000000000000000000008F
:10017000000000000000000000000000000000007F
:10018000000000000000000000000000000000006F
:10019000000000000000000000000000000000005F
:1001A000000000000000000000000000000000004F
:1001B000000000000000000000000000000000003F
:1001C000000000000000000000000000000000002F
:1001D000000000000000000000000000000000001F
:1001E000000000000000000000000000000000000F
:1001F00000000000000000000000000000000000FF
:1002000010B5054C237833B9044B13B10448AFF350
:1002100000800123237010BD700200200000000048
:10022000BCB5000008B5034B1BB103490348AFF34D
:10023000008008BD0000000074020020BCB5000072
:10024000154B002B08BF134B9D46A3F5803A0021A8
:100250008B460F461348144A121A07F0F5FE0F4B4F
:10026000002B00D098470E4B002B00D09847002061
:10027000002104000D000D48002802D00C48AFF307
:10028000008007F095FE2000290006F0B9FA07F07B
:100290007BFE00BF000008000000042000000000FA
:1002A0000000000070020020CC14002000000000BC
:1002B0000000000050E8002F0B4640E8003C9CF096
:1002C000000FF7D11046704750E8002F42EA0103B3
:1002D00040E8003C9CF0000FF6D11046704750E813
:1002E000003F43EA010240E8002C9CF0000FF6D1E9
:1002F0001046704750E8002F02EA010340E8003C36
:100300009CF0000FF6D11046704750E8003F03EA1A
:10031000010240E8002C9CF0000FF6D11046704717
:1003200050E8003F03EB010240E8002C9CF0000F76
:10033000F6D11046704750E8003FA3EB010240E8B9
:10034000002C9CF0000FF6D1104670470121FFF7FA
:10035000BBBF0121FFF7C3BF0021FFF7CBBF0021C7
:10036000FFF7D3BF10B561B1B2FBF3F403FB142464
:10037000A4B244B9C0E9001484608281C3812046DC
:1003800010BD0E20FCE70920FAE737B550E8013F21
:100390009DB2C48925448489A54228BF2D1B0489A8
:1003A000A54202BFBFF32F8F002207E0C5EA030575
:1003B00040E80154002CE9D14FF001028DF80320F0
:1003C0000193019B9DF803200B6002F0FF0322B113
:1003D0000B880068184403B030BD1846FBE70A8854
:1003E0004B889A4209D150E8012FC2EA024240E804
:1003F0000123002BF7D1012070470020704737B54B
:1004000050E8023F1FFAA3F5C488A54202BFBFF31C
:100410002F8F00220DE0C48925448489A54228BF7E
:100420002D1BC3EA054540E80254002CE8D14FF0EB
:1004300001028DF803200193019B9DF803200B60BE
:1004400002F0FF0322B14B880068184403B030BDAE
:100450001846FBE70A884B889A4209D150E8022FD8
:10046000C2EA224240E80223002BF7D10120704764
:100470000020704710B590B1D0E9012301689B1AA4
:10048000DBB20A60013BDBB2FF2B026802D1002025
:10049000107110BD11684C1C14600B70F2E70E2037
:1004A000F7E738B50446002004F04CFE2268616886
:1004B00013688B4215D9591E116013F8015CA28A8A
:1004C000E36802FB05352268A36811685B1A11799D
:1004D000DBB2994200D21371002004F035FE2846A9
:1004E00038BD0025F8E738B5054600200C4604F075
:1004F00029FE2A681368591C1160E968641AA98AE0
:10050000B4FBF1F41C700020BDE8384004F01CBEC0
:100510008368D3F854339B0703D50022114602F0B9
:1005200001B8BFF34F8F0549054BCA6802F4E0627A
:100530001343CB60BFF34F8F00BFFDE700ED00E03A
:100540000400FA0570B58368D3F85443C4F340043B
:1005500015462CB100221146BDE8704001F0E2BF03
:100560000139274B01295B8819D051B102292AD0C2
:10057000012B43D92348244B2449C01AC008000446
:1005800007E0012B3AD91F481F4B2149C01AC00868
:10059000000440F00200BDE8704003F06BBD012B89
:1005A0002CD921460A22686807F0A2FF164A154B8B
:1005B00018499B1ADB081B040246BDE8704043F053
:1005C000020003F05BBD012B18D921460A2268689E
:1005D00007F08EFF214606460A22A868094C07F05C
:1005E00087FF094B0C49E41AE40824040346324609
:1005F00044F00200BDE8704003F049BD70BD00BF8B
:1006000054010020F8B50000E0B500008C8900001E
:1006100042890000578900007089000070B5836826
:10062000D3F85443C4F3400415462CB100221146BC
:10063000BDE8704001F076BF0139264B01295B8887
:1006400019D051B1022929D0002B41D02248234B87
:100650002349C01AC008000407E0002B38D01E4808
:100660001E4B2049C01AC008000440F00100BDE83C
:10067000704003F0FFBC5BB321460A22686807F0B4
:1006800037FF164A144B18499B1ADB081B04024615
:10069000BDE8704043F0010003F0F0BCC3B1214657
:1006A0000A22686807F024FF214606460A22A86845
:1006B000094C07F01DFF094B0C49E41AE408240417
:1006C0000346324644F00100BDE8704003F0DFBC51
:1006D00070BD00BF54010020F8B50000E0B5000077
:1006E00014890000D0880000E3880000FA88000028
:1006F0001FB58368D3F854339B0706D500221146F3
:1007000005B05DF804EB01F00DBF064B064A0093FF
:10071000D21ACDE901220821044A00F087FC05B075
:100720005DF804FB00000000C8B70000548800001A
:100730008368D3F854339B0703D50022114601F098
:10074000F1BE024A4521032004F068BC89880000FC
:1007500030B18A68B2F8543343F02003A2F854331E
:10076000704710B543689C686068036801219B6806
:100770009847A36810B903221A7010BD0422FBE742
:100780000968006807F0F8BD08B107F007BE7047B8
:1007900010B50446FFF7F8FF23462044834201D1F9
:1007A000002010BD13F8012B3F2A01D02A2AF5D1D1
:1007B0000120F6E738B50546836800681C8DFFF711
:1007C000E3FFAB68DA8B2044B0FBF2F302FB1300CB
:1007D000B0FA80F0400938BD10B584680068FFF7B2
:1007E000D3FF238DE28B84F82000C0B20344B3FB17
:1007F000F2F102FB11330133A382E38C013118447F
:100800002183B0FBF2F3591C02FB13030133618314
:10081000E38204F1140010BD38B505468368006812
:10082000DC8CFFF7B1FFAB68DA8B2044B0FBF2F34E
:1008300002FB1300B0FA80F0400938BD2DE9F843FF
:10084000089C1E460F46E1B9184D194C641BE4087C
:10085000944204D9174800EB8208BC4201D100231E
:100860000AE06B68D8F80000196807F085FDA94612
:10087000083520B9D9F804303360BDE8F883013772
:10088000EBE70028EBD00178436839B121461046E8
:1008900098472368002BE2D03460EEE712019918E4
:1008A0009B58002BDBD03160E7E700BF90B600001B
:1008B00078B70000A001002030B50368D3F84C538E
:1008C00085B00446EDB100230A2201A9284603F0B1
:1008D00030FE2368029AC3F84C2300210A2201A8A3
:1008E00007F0B2FB00230A2201A9284603F017FEF5
:1008F000284603F0BCFD2368D3F84C0318B9C3F8AD
:10090000480305B030BD01A900230A2203F011FEFF
:10091000206800230A2201A9D0F84C03019303F0B8
:10092000FEFDEEE707B58368C9B193F822208A423D
:1009300012D00D4A009233228DF8042001F12F02CB
:100940008DF805206D22ADF8062083F822106A4646
:100950000649006904F03EFD03B05DF804FB83F82E
:100960002210034AF4E700BF1B5B313BE48E00001A
:10097000348B000007B5836893F823208A4214D093
:1009800045F61B32ADF8002034228DF8022001F12B
:100990002F0283F823108DF803206D22ADF8042078
:1009A000034900696A4604F015FD03B05DF804FBD5
:1009B000E48E0000014904F00DBD00BFF98E000077
:1009C000014A024904F006BD2A8B0000E48E0000B3
:1009D0000A460068014904F0FDBC00BF6D8B0000B1
:1009E00009B1FFF7F5BF7047014A024904F0F2BCB4
:1009F0002E8B0000E48E0000014A024904F0EABC9C
:100A0000318B0000E48E00002DE9F74F00235F4F8B
:100A1000036005460E46144699469846237843B12E
:100A2000DB5D13F008030CD004F8018B2B680B2B53
:100A3000F4D92B680022484646F8232003B0BDE8CD
:100A4000F08F2A68511C296046F82240994694F894
:100A500000A0BAF1000FE9D0B9F1000F40F0828098
:100A6000BAF1270F06D0BAF15C0F00F08380BAF11B
:100A7000220F70D12046FFF787FE611C02462046F8
:100A800007F0C8FAD146E2E72046FFF77DFE611C79
:100A90000246204607F0BEFA4FF00009D7E7302A99
:100AA00026D102234FF0000AE25CA2F13001C9B264
:100AB00007295FFA83FB18D8013341EACA0A052BDC
:100AC0005FFA8AFAF0D19B460BF1FF3121442046B0
:100AD0000191FFF759FE0199821CA2EB0B022046FF
:100AE00007F098FA04F801ABB1E7BBF1020FEBD1C4
:100AF000782A35D102214FF0000A635CA3F130025D
:100B0000D2B2092AC8B214D842EA0A1303295FFAFA
:100B100083FA0CD10423204603F1FF3B0193FFF736
:100B200033FE019BA344821CD21A5946D7E7032106
:100B3000E3E7A3F16102052A03D8573B43EA0A130E
:100B4000E4E7A3F14102052A01D8373BF6E7022882
:100B500006D00323DFE717F80A301B073FF566AF1F
:100B6000013474E7CA458FD0BAF15C0FF8D16278CE
:100B7000914594D12046FFF707FE04F1010A024691
:100B80005146204607F046FA544660E7B7B40000E5
:100B90002DE9F34106460F461446002514B902B06C
:100BA000BDE8F081706803682246D3F80C8079199B
:100BB00001ABC047019B1D44E41A002BEED1B36882
:100BC0001A78032AEAD0D3F854239206FBD5B3F857
:100BD00054236FF34512A3F85423DFE73A4B2DE972
:100BE000F74F05460F469046002499463A5DD25C81
:100BF000120723D405F110031FFA88FB019338462E
:100C0000FFF7C2FDAB68DA8B001BA2EB080398422A
:100C100007EB040A14D95046002610F801CB19F846
:100C20000CE01EF0080F03D0BCF10A0F33D033469E
:100C300008EB060C62452DD90136EEE70134D5E705
:100C400053460026B04219D013F8012B0A2A04EBB0
:100C500006091DD1286904F0B2FB32462E465146E2
:100C60002846FFF795FF56F8100FFFF7A3FE1FFA6F
:100C700088F1304609F10104FFF7B2FE28693919FD
:100C800004F0A8FB286903B0BDE8F04FFFF792BE5F
:100C90000136D7E71E46286904F091FB32465146DB
:100CA0002846FFF775FF34443B5D19F803301B07F6
:100CB00007D42869FFF77EFE59460198FFF790FE9A
:100CC0009DE70134F0E700BFB7B400000A4619B150
:100CD0000249006804F07EBB704700BF738B0000C0
:100CE0000A4619B10249006804F074BB704700BF9E
:100CF000678B000070B50546FFF76EFD037B028829
:100D0000818801339A42044601D1012915D0012975
:100D100005F1100604D9013989B23046FFF7D6FF34
:100D20002388217B8B4209D9013B591A89B230466D
:100D3000FFF7D6FFAB6800221A8570BDC91A0131D2
:100D400089B23046FFF74CFEF4E7F8B50546FFF7E9
:100D500043FD04468788C6882846FFF72BFD78B1F7
:100D60002869FFF727FEB74205F110050ED161880B
:100D70002388C91A284689B2BDE8F840FFF7B0BFFA
:100D80002846FFF749FD0028EAD1ECE7A388E1886F
:100D9000C91A89B22846FFF799FF238861888B42D8
:100DA000E7D9591A284689B2BDE8F840FFF718BEBE
:100DB0000A4619B10249006804F00CBB704700BF35
:100DC000618B000070B50546FFF706FD4388028879
:100DD000C1889A420446838801D18B4214D099423B
:100DE00005F1100604D9C91A89B23046FFF7E0FFB1
:100DF000238861888B4208D9591A89B23046FFF797
:100E00006FFFAB68DA8C1A8570BDC91A89B230469B
:100E1000FFF7E6FDF5E700002DE9F34105468068A0
:100E2000464F00244FF4C072214600F5D6708DF86D
:100E3000034007F009F94249286904F0CBFA286910
:100E400004F0BDFA4FF47A7647F00107686803684A
:100E50000122D3F810800DF1030101ABC047019BC3
:100E60005BB94FF6C010B847019B002BEED1013E95
:100E7000B6B2002EEAD10D2039E09DF80320AB6810
:100E80001B2A4ED093F8AC111B29EDD1522A48D120
:100E90001C44002284F8AC21A86890F8AD315B2B8B
:100EA00022D100F5D7710223164611F8012B013328
:100EB0003B2A9BB21ED1B3F5C07F24D003F5D67474
:100EC0000444002214F8011BF9B9FA2A28BFFA22B7
:100ED0008282AB68FA2E86BFFA221A831E83AB6821
:100EE000002083F8AC0102E080F8AC210B2002B0B6
:100EF000BDE8F08106EB860602EB4602303AB3F518
:100F0000C07F96B2D1D10C20F1E7013302EB82020F
:100F10009BB201EB4202303AB3F5C07F92B2D1D31B
:100F2000F1E723440134A4B2092C83F8AC219BD906
:100F3000AB68002283F8AC210420D8E7808B000046
:100F4000588B0000F8B51E46C3685B68986004467D
:100F50004068036817461D682E4A2346A847054681
:100F600000284ED1606903F080FA0546002848D178
:100F7000A368C3F84803A368C3F84C0301464FF4C1
:100F80005672A06807F060F8A2682348B2F854339C
:100F900043F02003A2F85433A368B3F8542367F353
:100FA0008202A3F85423A268B2F8543343F0080332
:100FB000A2F85433A36801221A70A3685022DA837E
:100FC000A36818229A83154A154B9B1A4FEAD30C33
:100FD00029460432614516D1072B04D9114B0E481E
:100FE000042207F072F866B19DF81810E06803F06B
:100FF00083F80028A1BFE368DB6801225A71B8BFFB
:1010000004252846F8BD52F831703F6840F8047B4B
:101010000131DFE751070000A001002090B6000079
:1010200078B7000081070000FFF7B2BD0CB473B5BC
:1010300006AB0E4653F8045B81680193D1F8543334
:101040005B07044621D591F82230B3421DD002221D
:101050002231684606F0D0FF31462046FFF762FC99
:1010600001AA2946206904F033FA9DF800102046B1
:10107000FFF758FC9DF8011011B12046FFF77AFCEC
:1010800002B0BDE8704002B0704701AA294620694D
:1010900004F01EFAF4E700008168002281F82C2099
:1010A00081680A858168CA840368024A0321FFF7C0
:1010B000BDBF00BFE48E000070B583681E78012EAE
:1010C00004461AD14068036800219B68984705468A
:1010D00088B908212046FFF725FC31462046FFF756
:1010E00049FC2069064904F075F9A36802221A70C8
:1010F0002046FFF7D1FF284670BD0825FBE700BF5B
:10110000F88E0000F8B504468068C58CAB18B3F5BE
:10111000C07F0F4616463BDA002A39D0038DED1A00
:1011200003F12C0113442C33ADB201446A1C184462
:1011300006F070FFA068038D2C3332463946184400
:1011400006F068FFA0682C30FFF71EFBA368D88468
:10115000A268138D2C33134420460E4A0821FFF752
:1011600065FFA3681A8D32441A852046FFF722FBDB
:1011700040B12069FFF71EFC55B12046BDE8F8409C
:10118000FFF7E3BD2046FFF747FB0028F1D1F3E767
:10119000F8BD00BFE48E00002DE9F04104468068F0
:1011A000D0F85433C28CC3F30008038D5FFA88F77C
:1011B000D51A0E46ADB2002F40D1B2F5BF7F42D84E
:1011C0003DB103F12C012D3301442A46184406F0A9
:1011D00021FFA3681A8D134483F82C60002F6DD172
:1011E000A268D38C01339BB2D384134483F82C8040
:1011F000002D6DD02046FFF7EFFA8288C3889A420F
:1012000004F1100621D1A268138D2C331344082158
:101210002046324AFFF70AFFE91B89B23046FFF742
:101220005FFDA268138D013313852046FFF7C2FAD4
:10123000F8B12069BDE8F041FFF7BCBBB2F5BF7F54
:10124000C7D9002DC5D1BDE8F0812069FFF7CCFBDF
:10125000A268138D2C3313440821204A2046FFF73F
:10126000E5FE2069FFF7C8FB01213046FFF7B0FB20
:10127000D7E72046FFF7D0FA0028E4D02046FFF752
:10128000ABFAC1888388013904F11006C91A0546F2
:1012900089B23046FFF78CFD2069FFF78BFBE988A8
:1012A000AB88C91A304689B2FFF710FD2988013989
:1012B000304689B2BDE8F041FFF792BB002D99D1CD
:1012C000A268D38C01339BB2D384134483F82C508F
:1012D00032460349206904F07DF8A2E7E48E00005D
:1012E000F98A0000F0B585B0826800250446CDE992
:1012F0000155ADF80C50D2F850630F46002946D185
:10130000002E3FD0FFF7F6FCA0683B460A22D0F83B
:10131000500301A903F00DF9A368029AC3F8502302
:10132000A068D0F85033C58C002B50D100F5D67092
:10133000FFF72AFAA36838B303F5D67103F12C003E
:1013400007F024F8A0682C30FFF71EFAADF80C0067
:10135000A268BDF80C301385A268AB42D38402D2D8
:101360002069FFF72DFBA3682D4A20462C33082166
:10137000FFF75CFE2046FFF71DFA00284AD02069DF
:10138000FFF718FB05B0F0BD83F82C00DAE7D2F8C0
:101390004C33B342F6D0D2F84833002BF2D0FFF7EB
:1013A000A9FCA368D3F8500340BB03F12C00FFF75E
:1013B000EBF9A368D3F84823C3F8502385B2A0689B
:1013C000CDB100F12C0100F5D67006F0DFFFA0686A
:1013D00001A900230A22D0F8500303F0AAF8A0685C
:1013E000BDF80C2000F12C010A230132D0F8500383
:1013F00003F09FF8ACE780F8AC51E8E72B460A22EF
:1014000001A903F096F8A368019ABDF80C50C3F83F
:101410005023DCE72046FFF7FFF90028AFD1B1E702
:10142000E48E000038B504468068038DC58CED1A43
:10143000ADB2002D3CD003F12D012C3301442A46DE
:10144000184406F0E7FDA268D38C013BD384204604
:10145000FFF7C2F98288C3889A4215D1A268138D1A
:101460002C3313442046134A0821FFF7DFFD54F8BC
:10147000100F1049104A03F0ADFF691E204689B2D3
:10148000BDE83840FFF72CBC2069FFF7ADFA2069B2
:10149000FFF796FAA268138D2C3313442046054AB1
:1014A0000821FFF7C3FD2069BDE83840FFF7A4BA63
:1014B00038BD00BFE48E0000388B00002DE9F041FC
:1014C000C3685B6890B004460D46002203A9186803
:1014D00003F0AAF8002840F08E80A5B1039803F02D
:1014E0000FF8A268D2F844330133C2F84433A3683A
:1014F000D3F8443303F00703012B04D00125284619
:1015000010B0BDE8F0812046FFF766F98188012917
:10151000064605D9013989B204F11000FFF7D6FB60
:101520003188012905D9013989B204F11000FFF78A
:10153000D7FB2069FFF744FA2DB1304A022120463B
:10154000FFF774FDDBE70023082204A9039802F0EB
:10155000F0FF069B0793059B08939DF810308DF8CC
:10156000255003F00302012A25D1BDF81060049F25
:101570000398C3F3C203C6F383168DF82430B20078
:1015800008230AA902F0D5FFC7F395272369009322
:10159000324607AB0AA9384602F064FE039802F00F
:1015A000AFFFE3685B68002203A9186803F03CF80A
:1015B0000028C8D0A2E7022AF0D1BDF81260C3F318
:1015C000C203B6098DF824304FF00808082E3746BC
:1015D00028BF082743463A460AA9039802F0A9FF04
:1015E000F61B236907AA39460AA8B84402F09EFEF2
:1015F000002EEBD1D2E7002581E700BFFC8A000076
:10160000436801219868FFF759BFF7B54768019112
:10161000BC68A3681E78042E0ED001A9386802F0B9
:10162000ABFF054650B9019802F066FF032E03D1C7
:1016300029462046FFF742FF03B0F0BDF11E18BF58
:1016400001212046FFF73AFFE7E700002DE9F04FC0
:1016500004468068A5B0102100F55570FEF73FFEE6
:10166000A3681B78022B40F0928000230B936068E4
:10167000036801221D690DF12B010BABA8470B9BE1
:10168000002B6BD09DF92B30002BF0DB02F05BFFC1
:10169000A3685A78022A00F23287DFE812F00300CA
:1016A0006F0676069DF82B100D2938D00A2936D002
:1016B000B3F854236FF38D12A3F85423092900F0D3
:1016C000638400F25A83032900F0818300F20C83C3
:1016D0000029CCD0012900F0F986BC4BCB5C13F07B
:1016E000970FC4D0A368D3F85423C2F3C00212F0FA
:1016F000FF0F40F08485D88CB0F5BF7FB7D8188D28
:10170000451C1D85034483F82C10A368198D0B44D8
:1017100083F82C20A268D38C0133D384A7E7D3F8B5
:10172000542312F47F5F05D0D3F85423C2F38712F9
:101730009142C3D1B3F8542361F38D12A3F854231B
:10174000A068C28C82BBC0F850232069FFF732F931
:10175000A36802221A702046FFF79EFC0021204653
:10176000FFF7ACFE98B12368994A03212046FFF7A2
:101770005DFCA368D3F85423120708D520462C3308
:10178000934A0821FFF752FC2046FFF7DEFA206952
:1017900003F015FEA0686FF0100100F55570FEF71C
:1017A000B4FD25B0BDE8F08F90F82C30002B40F050
:1017B0008580A0682C30FEF7E7FFA368002687B27B
:1017C0000546C3F8506327B3A368D3F8480300283D
:1017D00000F0B68033460A2217A902F0AAFEBDF82F
:1017E00064309F4240F0AC80A0680A2300F5D671B7
:1017F0007A1CD0F8480302F09CFEA06800F5D67170
:101800002C3006F0B9FDA368002840F0978083F8DB
:10181000AC01A0684FF4C072002100F5D67006F04C
:1018200013FCA068C28C00F12C0100F5D67006F004
:10183000E3FBD4F808A00AF5D6784046FEF7A4FFEB
:1018400080B2B8F1000F40F00081A06800F5D670BA
:10185000FEF79AFFA368013058852046FFF7B2FAD9
:101860002046FEF7A7FF10B92069FFF7A3F8A2688A
:1018700017A92C320CA8FFF7C7F80C9A0346002AC8
:101880003FF463AF002840F0E580524F524EF61B04
:10189000F6080546AE42179B40F0E2804F4A0092A0
:1018A00002214F4A2046FFF7C1FB51E70131B1F554
:1018B000803F06D1002380F82C307AE7434B00218B
:1018C0001D4647188EB297F82C70FF5C3F07EDD489
:1018D00066B12C300132521A014406F09BFBA2681B
:1018E000D38C9B1BD384A368DA8C1A85A268D68C10
:1018F00006F12B0111440F461FFA81FEB846BBB218
:1019000098F80000285CAEEB030C10F008001FFAFA
:101910008CFC07F1FF37F1D141453FF44AAFA6EB0C
:101920000C063244A3EB0E0382F82C00A268D18C83
:101930000B44D384A368DA8C1A853AE783F8AC6148
:101940000827ADB205F10B0604EB070831466069C4
:1019500002F0A3FD0546002844D0A368D3F848034D
:10196000C8B9C3F84853A368C3F84C53CDE917006E
:10197000A368DB8CADF8643017A9284600230A223F
:1019800002F0CDFDA168CA8C0A2301322C31284611
:1019900002F0C5FD3DE700230A2217A902F0C9FDA8
:1019A000A068189500230A2217A9D0F8480302F06E
:1019B000B6FD00231893A368D3F848231792DA8C56
:1019C000ADF86420C3F84853D6E700BFB7B40000B1
:1019D000E48E000090B6000078B70000F88D00009B
:1019E000228D00004046FEF767FF013FAED110E7B1
:1019F00043B1C61A0CF10100B21A404406F00AFBCA
:101A0000B0B24B46411E8D422A46BFF61EAF18F8B3
:101A1000021011F80B10AC46090705F10105ADB233
:101A2000F0D505F5D67757442E468642EAD2394698
:101A3000013791F800E01BF80E9019F00809D7D093
:101A4000013301369BB2B6B2EFE700252B46DFF833
:101A500094B2D7E79D4A02212046FFF7E7FA77E6DE
:101A60007A681846116806F087FCB846083718B13E
:101A70000135AE42BFF40EAFA06800211022043041
:101A80000D9106F0E1FAD8F80430DA6822B10FCBF4
:101A9000A568043585E80F00D8F804304FF0000839
:101AA0009B680493CDF814800125C3460C9BAB4280
:101AB00010D924AB03EB8506854956F8340C06F0A3
:101AC0005BFC00282FD1A268B2F8543343F0020324
:101AD000A2F85433B8F1000F0FD0A068428D00F582
:101AE000D6712C3006F088FAA3685A8DDA84A26881
:101AF00017A92C320CA8FEF787FFA3681B69002BDF
:101B000000F0E180059A059817A901EB82020C9973
:101B1000091A20469847A368B3F854236FF341028B
:101B2000A3F8542314E66B4956F8340C06F024FC51
:101B30000028C8D056F8340CFEF72AFE002800F022
:101B4000888056F8343C039300260E96B14609F17E
:101B50000103079313AB00934A460EAB2946049842
:101B6000FEF76CFE0E9BDBB100221968039803F0B0
:101B700023FC002867D10E9B1B6806931846FEF7CE
:101B800003FEA26883B21F460893538D01333B4482
:101B9000B3F5C07F37D9504A04212046FFF746FAF3
:101BA000002E97D0A068039900F5D67006F010FCBF
:101BB00007460398FEF7E8FD1FFA80F9F7B1A3681E
:101BC00003F5D6739F4209D917F8013C202B02BFB9
:101BD00009F101091FFA89F907F1FF373846FEF7C5
:101BE000D3FDA268538DA3EB09035385421CA2EBDE
:101BF000090207EB0901384606F00CFAB04401353A
:101C00005F46BB4652E7039902F5D67006F0E0FB4B
:101C100082460028C4D0FEF7B7FD82B2781C01329C
:101C20005146504406F0F6F93A460699504606F0F9
:101C3000E3F920230AF80730A2680899538D01338D
:101C4000194451850136B9F1FF3FA9D0DDF81C9048
:101C50007DE70FAB0BF1010700935A460DAB294608
:101C60000498FEF7EBFD002F3FF434AF0D9B002BE3
:101C70003FF430AF196856F8340C06F07DFB0028AD
:101C8000BFD10D9EF368CBB1B8F1000F0FD0204645
:101C9000FFF798F82046FEF78DFD10B92069FEF792
:101CA00089FE0E4A02212046FFF7C0F933E796E885
:101CB0000F00A7680595043787E80F00B368049301
:101CC000013500279DE7064AECE700BFE48D0000E0
:101CD0000C8E00000F8E0000168E0000648E000037
:101CE000938E0000B7B40000052900F0E8830829AE
:101CF0007FF4F3ACA068D0F854331D077FF5B7AC80
:101D0000C58C002D3FF4B3AC038D002B3FF4AFAC7A
:101D1000ED1A03F12C01ADB22B336A1C01441844B7
:101D200006F078F9A268138D013B1385A268D38C65
:101D3000013BD384002D00F01A8308228E492069CC
:101D400003F048FB2046FEF747FD8288C3889A428D
:101D500040F0FD82A268138D26462C3313440821DF
:101D6000864A2046FFF762F956F8100FFEF728FE64
:101D700029463046FEF7B4FF79E4172958D013D826
:101D80000C2935D015297FF4A8AC2046FEF7B2FF08
:101D9000A268002382F82C30A2681385A268D3843D
:101DA0002069FEF70DFE62E41B290CD07F297FF429
:101DB00094ACA368D3F8543318077FF558AC204689
:101DC000FFF730FB53E4A36801225A704FE420462A
:101DD000FEF7F8FF2046FEF7EDFC10B92069FEF78C
:101DE000E9FDA36802221A702046FFF755F93EE488
:101DF000634A6249206903F0EDFA624A5F4920694B
:101E000003F0E8FA23685D4A03212046FFF70EF944
:101E1000A368D3F8542312077FF529AC20462C334E
:101E2000564A0821FFF702F92046FEF78EFF1EE40E
:101E3000D4F80880B8F82630002B3FF418ACB8F876
:101E40002870002F3FF413AC07F12B034344002606
:101E500013F80129BD1B202AADB273D005F12B0365
:101E600043447E1BB6B21DB113F80129202A6FD15D
:101E70002068FEF789FCB8F81E10D4F808902844B2
:101E8000B0FBF1F82068FEF77FFC3844B9F81E700B
:101E9000B0FBF7F0A8EB0007D4F808802068B8F88A
:101EA0002890FEF771FCB8F81E30D4F808A028443A
:101EB000B0FBF3F803FB18082068FEF765FCBAF8DE
:101EC0001E104844B0FBF1F301FB1300A368A919ED
:101ED000DA8CA8EB00082C3105F12C00921B194478
:101EE000184406F097F8A268D38C9E1BD684A3688A
:101EF0001D85A368DA8C13440022904583F82C20BA
:101F000029DD1FFA88F104F11000FEF769FD002FAA
:101F10002ADDB9B204F11000FEF74AFF2069FEF78E
:101F200063FDA268138D2C3313442046134A082105
:101F3000FFF77CF82069FEF743FD2069FEF75CFDA2
:101F4000FFF795BB0136B6B2B74281D100258FE7C6
:101F5000013DADB285E7DAD0C8F1000189B204F1E4
:101F60001000FEF7BDFED2E7D8D0794289B204F165
:101F70001000FEF7ABFED1E7F98A0000E48E000006
:101F80003C8B0000408B0000A068D0F854331F0742
:101F90007FF56DABC68CC6F5BF760136B6B2002EA6
:101FA0003FF465AB028D00F12C0100F5D67006F010
:101FB00023F8A3681A8D1344002583F8AC51A36855
:101FC0001A8D1A440CA892F82B109E4A8A5CC3F80A
:101FD000505302F00801C2F3C0020692A2680891B1
:101FE00002F5D67217A9FEF70FFD1798FEF7CCFB86
:101FF000CDE90D55CDE904551FFA80F803952F461C
:10200000AB460C9B2BB1069A013B1344BB4200F23A
:102010008780089B002B37D124AB03EB870353F851
:10202000340CFEF7B1FB1FFA80F824AB03EB8703F7
:102030004FF0000A09930AF1010307930FAB0093D5
:1020400052460DAB39462846FEF7F8FB0D9B002B98
:1020500058D01968099B424653F8340C06F0A6F98B
:102060008146B0B90D9B18680E9B0BF1010B9BB913
:10207000FEF78AFB83B2A3EB08008642039300DDE0
:1020800086B2CDF810A030E04FF00008CDE7CDF8D3
:1020900014A0DDF81CA0CEE7FEF776FB039B80B210
:1020A000834238BF03460393FEB113AB0093284627
:1020B0000EAB059A3946FEF7C1FB0D9B18680E9BC7
:1020C000D3F800C008EB09021FFA89F1835C1BB941
:1020D0008E4228BF0E4608E01CF802209A42F7D133
:1020E00009F10109B9F5803FECD10D9B0E93079BD7
:1020F000002BCCD1544A04212046FEF797FF4FF025
:10210000FF330593002D3AD00D9B002B37D00C9B4D
:10211000069A0137BFB213449F42FFF472AF2EE01C
:1021200024AB4FF0000903EB870A0FAB00934A463C
:102130000DAB39462846FEF781FBB9F1FF3F06D1CA
:10214000414A04212046FEF771FFFFF790BA0D9B2C
:10215000002B3FF48CAA5AF8340CFEF719FB002828
:10216000D0D10D9B5AF8340C196806F005F909F125
:1021700001090028D9D10D9B9D68002DC7D1BBF165
:10218000000F3FF474AABBF1010F5FD12B783BB174
:102190000FAB0093059A0EAB39462846FEF74EFB6F
:1021A0000E9B1868FEF7F0FA404506D00E9B1968A2
:1021B000324641442046FEF7A5FFA368198D5A1800
:1021C00092F82C001F4A825C12F008021CD1D3F84E
:1021D0005413CE0712D5B3F8541362F30001A3F8D9
:1021E000541320462021FEF7D7FFA268B2F85433DB
:1021F00043F00103A2F85433FFF739BA20212046F7
:10220000FEF7CAFFFFF733BADB8C8B427FF62FAAAB
:102210002046FEF7E1FAA2688588138D0133138505
:102220002046FEF7D9FA8388AB4206D1012104F19A
:102230001000FEF7CDFBFFF71ABA2069FEF7BAFBD4
:10224000FFF715BAB7B40000B18E0000A368DFF83D
:10225000D0A200229A8424AB03EB87030693049B4D
:10226000049A013305930FAB009339460DAB284612
:10227000FEF7E4FA0D9B1968069B424653F8340CAE
:1022800006F094F810BB0D9B1B680BF1FF3B03BBE2
:10229000A2689384BBF1000F18D12368994A2046A5
:1022A0000321FEF7C3FEA368974A2C33082120467A
:1022B000FEF7BCFE2046FEF748FD0E9B196832462D
:1022C00041442046FEF71EFFFFF7D1B9059B04935A
:1022D000C5E750460793FEF757FA039BA1681844D9
:1022E00082B25046B1F81E900492FEF74DFA079B59
:1022F00008901846FEF748FA049A0899101A83B213
:10230000A0680493B0F824C0079BA9EB0109B9FBAE
:10231000F2F292B2BCFBF2F102FB11C20CF1010E1F
:1023200092B2A0F824E062B90093784A534607219C
:102330002046FEF77BFE049904F11000FEF750FBE7
:10234000A8E7714A07212046FEF770FEF3E72069EF
:10235000FEF74AFB2069FEF733FBA268138D2C338E
:1023600013440821684A2046FEF760FEE5E5684A06
:102370006549206903F02EF8FFF779B99DF82B2005
:102380005B2A40F0BC8002221FE500225A70A3683D
:10239000D3F8542311077FF5E1A99DF82B20313A9A
:1023A0001B2A3FF664A901A151F822F0C9240000BC
:1023B000D7240000F9240000BB2400006F160000A1
:1023C0006F1600006F1600006F1600006F160000F9
:1023D0006F1600006F1600006F1600006F160000E9
:1023E0006F1600006F1600006F1600001D2400001D
:1023F000292400002D240000792400006F1600001D
:10240000BF2400006F160000CD2400006F160000EE
:102410006F1600006F160000DB240000012120462B
:10242000FEF760FFFFF723B90021F8E72046FEF72B
:10243000D3F9038842889A42054604D18188C2882C
:1024400091423FF414A96A899A4204F110060ED110
:1024500030492069012202F0BDFF69893046FEF74C
:102460003FFCA268138D01331385FFF700B90121EA
:102470003046FEF7ADFAF4E72046FEF7ADF9037BF0
:10248000028801339A42054603D18388012B3FF429
:10249000EEA8012A20690BD11F4902F09BFF698930
:1024A00004F11000FEF79CFAA268138D013BDBE7F4
:1024B00001221A4902F08EFFF6E703225A702046E5
:1024C000FEF780FCFFF7D3B803225A702046FEF7D0
:1024D00011FCFFF7CCB803225A70A268D2F854332B
:1024E000B2F8541303F0010383F0010363F3000116
:1024F000A2F85413FFF7BBB803225A7059E4002224
:1025000063E400BFE38E0000E48E0000DD8E000077
:10251000548B0000618B0000738B0000678B000000
:10252000739A00002DE9F04F044689B07D48DFF82A
:1025300018920E46174605F031FF05467A4805F019
:102540002DFFA368CDF80090784A5B6808212D1A0A
:102550002046FEF76BFDA3685868FEF715F9804624
:10256000484605F01BFFA36899684044ADB282B2AB
:1025700011B12046FEF732FB6D4A00212046FEF7DE
:1025800055FD3FB136B14FF00C09B04609FB076964
:10259000C14527D1644805F001FF02300544ADB2C2
:1025A000604B009305F10308624A082120462B4640
:1025B0001FFA88F8FEF73AFD42465F492046FEF7CB
:1025C0000DFB36B10C23DFF86C9103FB0767BE42AD
:1025D00022D1A368D3F80C80B8F1000F59D109B00B
:1025E000BDE8F08FD8F80400FEF7CEF88246D8F8A0
:1025F0000000FEF7C9F85044A8420AD9D8F80400F0
:10260000FEF7C2F80546D8F80000FEF7BDF805440D
:10261000ADB208F10C08BBE7D6E900238BB342B397
:102620000192414A00920821444A2046FEF7FEFCEE
:102630007068FEF7A9F883463068FEF7A5F8824671
:10264000394805F0ABFE0BEB0A01691A091A89B289
:1026500004F11000FEF7C4F93A223949206902F06A
:10266000B9FEB16889B142462046FEF7B7FA0C368A
:10267000ADE700932B464A4608212046FEF7D6FCDC
:10268000EFE7002AEDD00092F4E72069FEF792F917
:10269000EDE700220392174604AE009603AB01213A
:1026A000404602F10109FEF7C9F8039D5DB12868B3
:1026B000FEF76AF8B84204D9039B1868FEF764F87D
:1026C00087B24A46E9E7B9F1010F88D01D4ADFF821
:1026D00064A029462046FEF7A9FC2A46BD1CADB2DF
:1026E00003AB00960121404602F10109FEF7A6F86E
:1026F000039B002B3FF473AF1B68009308212B460C
:1027000052462046FEF792FC039B596831B17A1D70
:1027100092B22046FEF762FA4A46E1E72069FEF7E8
:1027200049F9F9E7868B0000088F0000DE8E000073
:10273000968D0000A08D0000A88D0000BB8D0000CC
:10274000F98A0000C48D00005D8B00000022114654
:10275000FFF7E8BE022910B5044608D18368D3F814
:1027600054339B0703D5BDE81040FFF7EFBF206946
:10277000054A064902F02EFE2069054A0349BDE8D4
:10278000104002F027BE00BF458B0000E48E000021
:10279000498B0000012906D0022906D18368D3F8AD
:1027A00054339B0701D5FFF7D1BF024A0221FEF740
:1027B0003DBC00BF938E000010B58368D3F854234E
:1027C00092070C4606D500221146FFF7ABFE012406
:1027D000204610BD0029FBD05B68024A0221FEF7AB
:1027E00025FCF5E7AC8C0000012937B505461446F9
:1027F00004D103B0BDE83040FFF7A8BF023918BFCD
:102800000121FFF7D9FF48B963680193044B009396
:10281000044A236802212846FEF708FC03B030BDB5
:10282000288D00001F8D0000012907B504D103B0D9
:102830005DF804EBFFF78ABF02290AD153680193C0
:10284000084B00931368084AFEF7F0FB03B05DF8ED
:1028500004FB8CBF0121002103B05DF804EBFFF7FE
:10286000ABBF00BF288D00001F8D000011F1FF31AC
:1028700010B518BF01210446FFF79EFF50B9064A64
:102880000649206902F0A6FDA3685022DA83A368F6
:1028900018229A8310BD00BF4E8B0000E48E00000A
:1028A00001292DE9F3410446154639D18668FEF722
:1028B000B3FA38BBA36804F11005FA212846B3F82F
:1028C00014801F8BFEF784F820691F49FA2202F05A
:1028D00081FD2046FEF7A0FAA0B9A368998AF1838A
:1028E000A368A1EB08011B8BB383284689B2FEF7CE
:1028F000F7F9B18BC91B89B2284602B0BDE8F04197
:10290000FEF7E4B9A3685022DA83A36818229A83F9
:102910000E4A0421204602B0BDE8F041FEF786BB16
:10292000022994BF00210121FFF746FF48B96B68D7
:102930000193074B00932B68064A02212046FEF7BD
:1029400075FB02B0BDE8F081618B00005C8D00007A
:10295000288D00001F8D00002DE9F04111F1FF319D
:1029600086B018BF01210546FFF726FF50BBAB68B4
:10297000DFF85880D3F84C630446FEB1082C1DD014
:10298000304600230A2203A901F0D3FDBDF814202C
:10299000A96830460A23013201F5D67101F0C9FD5C
:1029A000AB68049E03F5D6730093671C234642462A
:1029B00000212846FEF73AFB3C46DEE7AB680022E2
:1029C00083F8AC2106B0BDE8F08100BF528D000055
:1029D00011F1FF3110B518BF01210446FFF7ECFEDD
:1029E00030B9A368B3F8542360F38202A3F85423E8
:1029F00010BD11F1FF3110B518BF01210446FFF7DA
:102A0000DBFE30B9A268B2F8543343F00403A2F8F5
:102A1000543310BD11F1FF3110B518BF0121044628
:102A2000FFF7CAFE30B9A368B3F8542360F3C302BA
:102A3000A3F8542310BD11F1FF3110B518BF0121C7
:102A40000446FFF7B9FE30B9A268B2F8543343F038
:102A50000803A2F8543310BD022973B50D4694BF84
:102A60000021012104461646FFF7A6FE014658B98B
:102A7000022D0BD1736801930C4B00930C4A336801
:102A800029462046FEF7D2FA02B070BDA368094A73
:102A9000D3F8543313F0080F074B18BF1346074AF7
:102AA000204602B0BDE87040FEF7C0BA288D000095
:102AB0001F8D00004FAE00003D8D0000418D0000D5
:102AC00011F1FF3110B518BF01210446FFF774FE64
:102AD00048B9A368C3F84403E3685B68BDE81040E5
:102AE000186801F0E3BD10BD7FB511F1FF3118BFCB
:102AF00001210446FFF760FE0546B8B9E3685B684C
:102B00001E68304601F0CFFDB268A168C0B2CDE9C1
:102B1000010264234343B3FBF2F3DBB20093D1F829
:102B20004433034A29462046FEF780FA04B070BDBC
:102B3000E88C00001A60C0681A4601F093BE406934
:102B4000043003F033BC10B504464069043003F090
:102B5000FBFAA368BDE81040186801F0FDBF37B567
:102B60001A6004461A46006901F002FE0546F0B9F3
:102B70006069043003F0A0FBC8B9FF23019301AAE8
:102B800001236946206901F032FE80B960699DF831
:102B900004200099043003F043FB636893F8293064
:102BA000054623B118B90199206901F097FE28461E
:102BB00003B030BD13B5FF23044600936A460123DA
:102BC00001A9C06801F084FD70B9009A62B1606922
:102BD0000199D2B2043003F07BFB28B9A3682246E6
:102BE0006621186801F09FFF02B010BD73B503782D
:102BF000FF26012B05460C4601960BD0BBB1022BDC
:102C000006D1017AE06801F09AFD2046FFF7D2FF75
:102C100002B070BD017AE06801F091FD2B7A002BC3
:102C2000F3D063680020D3E900219047EDE7017AF3
:102C3000206901F053FE01AA01236946206901962B
:102C400001F0D5FD019A2AB160690099D2B2043031
:102C500003F0E6FA63680120D3E900219047D7E743
:102C600038B5436893F8283004460D4613B383689B
:102C7000186801F071FF30F008030FD17DB1606971
:102C8000043003F061FA616860690022083102F0E3
:102C90008FFE68B96368012283F8292038BD636814
:102CA00093F8283043B12046BDE83840FFF782BF93
:102CB0000620F3E70029E2D1054AA068002101F0CF
:102CC00027FF6368012283F828200028EBD0E5E77E
:102CD0003F2B000038B504464068026062685360CC
:102CE0006268002382F82830626882F829306068C0
:102CF0000D462022083005F07FF92C612946074A4D
:102D0000606902F055FE054628B9E06801F0D2FC82
:102D1000206901F0CFFC284638BD00BFED2B000034
:102D200070B5064D0646002455F8043B0BB13046FD
:102D300098470134042CF7D170BD00BF98020020E1
:102D40000B4A0C4B5188142000FB0131CB6833B97E
:102D50000420496810700122074800F085BC052353
:102D60000649137002238B80012200230968F3E7D0
:102D7000B0020020C802002034010020F40200202C
:102D800007B5002305490093054A0968054808234B
:102D900000F0AAFB03B05DF804FB00BFF4020020C2
:102DA000C09100003401002007B5002300930146C4
:102DB0000823034A034800F097FB03B05DF804FBC7
:102DC000B89100003401002013B500230C46009395
:102DD00001460423074A084800F086FB38B9074B30
:102DE000142202FB04340123237402B010BD48F204
:102DF0000D60FAE7B491000034010020C802002001
:102E000037B50A480A4B42689C88196853880325DD
:102E1000033305709BB2002000909B0001EB8401FE
:102E2000044800F061FB03B030BD00BFB0020020D9
:102E3000F4020020340100204388033300EB8303B5
:102E400099420BD382884FF6FF739A4208D00388C9
:102E500033B18068431C5842584170470220704784
:102E60000120704770B5154A142303FB00200B683E
:102E700044680D4604F58056ABB15C88033403EB1F
:102E80008404B4420DD2236801330AD0314620466F
:102E9000FFF7D2FF01280BD010F0FF0F05D002285A
:102EA000EFD1002003E00834EBE72C60012070BD77
:102EB0006388033304EB8304E3E700BFC802002008
:102EC00073B5436804460D4673B3244AD1688B42F8
:102ED0002AD31269934227D813F0030224D1204940
:102EE0000089098988421FD12068996888421BD1CE
:102EF0001C494868834203D900F5805083420ED3B1
:102F00008A6993420DD902F58052934209D2012376
:102F10002B800020B0FA80F0400902B070BD13464B
:102F2000F6E748F20960F5E700232B801E4601967C
:102F300001A92888FFF796FF30B92B8801339BB28F
:102F4000012B2B80F3D9E8E7019B22689968914215
:102F5000EED16360024B1B892381DEE73401002040
:102F6000B0020020C80200202DE9F8431C461F4B88
:102F70001B7806460F461546002B31D0002A32D06A
:102F8000002C30D0DFF86C804FF01409A388012B9F
:102F900002D948F2096021E009FB03F318F8033075
:102FA0002BB92146A088FFF75DFF20B92060A388D8
:102FB0000133A380EAE723681EB1998832889142E1
:102FC000EFD11FB119883A889142EAD19B682B60F2
:102FD00023686B60064B1B892B810020BDE8F883BA
:102FE00048F20160FAE748F20460F7E7A80200201F
:102FF000B0020020C802002008B5074B191D5888F0
:10300000FFF730FF18B1BDE80840FFF7F9BEBDE893
:103010000840FFF795BE00BFB00200202DE9F04F39
:10302000A34FDFF8B09289B00646B8463B6823B993
:103030004946A048FDF7E3F93860D8F800502978F0
:103040004B1E052B00F2FF80DFE813F00600600046
:103050006000F300F30064012EB1974B00225A6028
:103060004FF40644F1E02B79032B1DD8DFE803F081
:1030700015022B3691490B78022B08461AD00B7D8E
:10308000022B4FF0010317D114225343C218002022
:10309000C8545068FFF788FE03E001232B71FFF747
:1030A0006FFE002800F0BF80834B00225A6048F278
:1030B0000D64CAE00023E7E77F4A137000235360E2
:1030C00041F61D54C1E07E497E48002302222B7147
:1030D0008A800122096800F0C7FAE2E7784C0026EE
:1030E0002E712068754DFFF75FFE774BD4F800C056
:1030F0005A8814235343EA18EE5451682160A1887A
:10310000C2F804C011810222A280CAE7B5F814A057
:10311000AA7DDFF8A8B11423AEB1022A06D903FBB9
:103120000AB3EA88198903320A441A81142303FB7B
:103130000ABAEB88BAF80A20C3F57F43FD3313447B
:10314000AAF80A308CE703FB0AB318895C6804EB21
:103150008004062A6AD8DFE802F0284F37451E5B54
:10316000040041F61D54AB7D022B07D9142202FB4B
:103170000AB2EB88118903330B441381142303FB38
:103180000ABAEB88BAF80A20C3F57F43FD3313442B
:10319000AAF80A3059E04D484D4900234360AB6915
:1031A0000360FFF78DFE002874D00223AB75002367
:1031B00000930423EA182146424800F095F90028BC
:1031C00031D048F20D64CEE72B69002B14BF0323E6
:1031D0000123AB750023009305F10C02042304F1D5
:1031E0000801E9E70123AB750022EB8800929B0000
:1031F0002A6904F10C01DFE703290CBF052306232C
:10320000AB7500230093042305F10802E118D3E70E
:103210000623AB752E4B19882C4B5868FFF7D4FD4D
:10322000044600289FD109B0BDE8F08F48F20E6433
:1032300099E7002E7FF414AF2B79012B4CD0EBB122
:10324000022B3FF43DAF48F20E641422002103A884
:1032500004F0FAFE41F61D539C4208BF0024D8F842
:10326000003004941A78023A042A00F20781DFE859
:1032700012F0E800F40017011F01260102232B7150
:10328000CDE904660DF10A01EB68039303A8FFF78B
:1032900017FE10B948F20964D7E70498BDF80A1080
:1032A0008388EB8003882B81FFF78EFD044628E09E
:1032B000C402002000000020A8020020C802002054
:1032C000F402002034010020B00200208C02002013
:1032D000FC020020C0020020DFF800A203AA53462F
:1032E0003146A81DFFF740FE044668B9BAF804103D
:1032F0000498FFF769FD044648F209639C423FF4D5
:10330000DFAE002CA1D18EE708223146504604F0F2
:103310009BFEF1E7002E7FF4A3AE6B4B1A7BAAB1A4
:103320001E731A78013A062A8DD801A151F822F0AD
:10333000D7330000FD3300001B34000021340000AF
:103340004732000027340000393400001A78072A79
:10335000E7D801A151F822F07933000023330000AF
:10336000233300009F330000B3330000D333000049
:10337000D33300009B3300001A89544901321A816B
:1033800000225A801A730A78B2FA82F252099A72AB
:103390000A7DB2FA82F25209DA72012207E04C4940
:1033A00058688A884088033202448A8002221A7050
:1033B000B7E7464C5A884649142505FB024208687F
:1033C000546850608888108102228A800C6006222E
:1033D000EDE70722EBE79A7A32B9DA7A8AB9002266
:1033E0001A705A805A606BE6384900229A72CA688D
:1033F000002AF2D1097C0029EFD05A80FFF7FCFDAA
:1034000054E70022DA72314A116A0029E7D192F8B2
:103410002420002AE3D00122EFE7FFF7F1FC45E783
:10342000FFF78EFC42E7294A5B88142101FB032346
:103430005868FFF7B9FC39E700225A60FFF7A0FC93
:1034400034E701228DF80C201A89ADF818209A88EB
:10345000ADF81A20DB68059310E002228DF80C20ED
:103460001A89ADF818209A88ADF81A20DA68059202
:103470009B7D9A1F534253418DF81C3003A8FFF7E0
:103480004FFC002649461348C8F80060FCF7E2FFED
:1034900001211148FCF74FFF00287FF4C7ADC2E6B9
:1034A00003228DF80C20DA88ADF818201A89CFE7AE
:1034B00004228DF80C20DB88ADF81830DEE70523F8
:1034C0008DF80C30DAE700BFB0020020C8020020FF
:1034D000F402002000000020F00200200003002081
:1034E0004068FFF79BBD00002DE9F3419646B0B957
:1034F000504B5B88002B00F095804F4B4F48504A53
:10350000C01AC0080E244F4B009400044E4940F0EE
:10351000010000F0C6FD204602B0BDE8F0816AB9A6
:10352000444B5B88002B7DD0434B4448474AC01A2C
:10353000C0080E2400040094424BE7E7D0F800C016
:10354000BCF1000F0DD13B4B5B88002B6CD03A4B8C
:103550003A483F4AC01AC008082400040094394B76
:10356000D4E76BB9334B5B88002B5FD0324B3348C9
:10357000384AC01AC008092400040094314BC5E73A
:103580004768D7F80480B3FBF8F708FB17376FB12B
:10359000284B5B88002B49D0274B28482E4AC01A5D
:1035A000C008092400040094264BAFE78F070DD014
:1035B000204B5B88002B3BD01F4B2048274AC01A6A
:1035C000C0081024000400941E4B9FE712F0030F64
:1035D0000CD0184B5B885BB3174B1848204AC01AB5
:1035E000C008102400040094164B8FE7C768B94246
:1035F0000BD34C1E05691C44AC4206D8DCF80C40C9
:10360000A44602B0BDE8F04160470A4B5B887BB13D
:10361000094B0A48134AC01AC00810240004009439
:10362000084B73E70E2476E7082474E7092472E751
:10363000102470E788010020E0B5000060B60000AB
:1036400072920000D791000077920000F49200007F
:10365000E8920000A7920000FA9200002493000074
:103660003C9300005F930000F7B5A0B9374B5B882F
:10367000002B63D0364B3748374AC01AC0080E2497
:10368000364B00940004364940F0010000F009FD7B
:10369000204603B0F0BDD0F800C0BCF1000F0DD142
:1036A0002A4B5B88002B4BD0294B2A482D4AC01A45
:1036B000C008082400040094284BE4E76AB9234BAF
:1036C0005B88002B3ED0224B2248274AC01AC008F4
:1036D000092400040094214BD5E74768D7F800E09F
:1036E0000EF1FF370F420CD0184B5B8863B3184BB9
:1036F00018481E4AC01AC008102400040094174B32
:10370000C1E7C768B9420CD34C1E05690EFB0244E1
:10371000AC4206D8DCF81040A44603B0BDE8F04047
:1037200060470A4B5B887BB1094B0A48104AC01AB4
:10373000C008102400040094084BA4E70E24A7E757
:103740000824A5E70924A3E71024A1E788010020A5
:10375000E0B5000060B6000072920000EA9100003F
:1037600077920000E8920000A7920000FD9100000F
:1037700023920000BFF34F8F0549064BCA6802F43D
:10378000E0621343CB60BFF34F8F00BFFDE700BF84
:1037900000ED00E00400FA052DE9F74F064600F0C1
:1037A000F1FC00F0DDFA0028FBD1394C394A3A4BE4
:1037B0003A4D9F6A6B88A41AE408240444F001047B
:1037C000002E5ED0D3B1B2693549204600F056FCD8
:1037D0006B889BB1F3680193B36800933149D6E9D4
:1037E0000023204600F069FC6B883BB1F36900932D
:1037F0002D49D6E90423204600F053FC264BDB6A12
:10380000980705D56B881BB12849204600F032FC8B
:10381000DFF8ACA0DFF8ACB04FF000084FF00109C2
:1038200009FA08F33B4208D05AF828202AB16B88DD
:103830001BB15946204600F021FC08F10108B8F1FF
:103840001A0FEDD1390607D56B882BB1124B1849E9
:103850005A6B204600F012FC3A0407D56B882BB156
:103860000D4B14499A6B204600F008FC124B1B6864
:10387000DB0700D500BE3046FFF77CFF03B0BDE894
:10388000F08F002BBAD00D49204600F0F3FBB5E7CE
:1038900058B60000E0B5000000ED00E08401002013
:1038A00093930000A8930000DD930000389400007B
:1038B00087940000A7940000F0ED00E0059400005C
:1038C000C49400007C9400001EF0040F1CBFEFF3B2
:1038D00009800AE0EFF308800549064A884201D8CA
:1038E000904202D88D464FF00000034B184700006D
:1038F0000000042000E0032099370000704700001A
:1039000007B5044B0093044A402300F032F803B09B
:103910005DF804FB1D390000090300202DE9F84380
:1039200089461446B2B10F4B0F4E0325002743F0D2
:103930000108224609EB0701002001F087FF074438
:10394000241A48B933782BB14FF47A40C047013D6F
:1039500002D13570BDE8F88301233370002CE8D123
:10396000F8E700BFF099000008030020704701F05D
:10397000A1BFF0B595B01C46164608460D4600F0AE
:10398000BBFD1A9B0D93CDE9086400242346082251
:1039900005A928460A948DF82C400C9400F0C9FD26
:1039A000079B0293069B03939DF814308DF81140FA
:1039B00003F00302012A1DD1BDF81440059EC3F394
:1039C000C203C4F383148DF81030A20008230EA99B
:1039D000284600F0AEFDC6F3952608AB00932246BC
:1039E00002AB0EA9304600F03DFC284600F088FDF1
:1039F00015B0F0BD022AF8D1BDF81640C3F3C203DA
:103A0000A4098DF810300827082C264628BF082660
:103A10003B4632460EA9284600F08BFDA41B08AB9E
:103A200002AA31460EA8374400F080FC002CEBD1EE
:103A3000DBE7000008B5FFF79AFF0421034800F018
:103A40005BFB034B01225A7108BD00BFC0B50000EB
:103A500014000020037813F0040216D003F00303CF
:103A6000012B03D0022B09D0012070470A6800887F
:103A70000232C0F3831002440A60F5E70B68428803
:103A8000023303EB92130B60EEE710467047000021
:103A90002DE9F04F044685B0851C00200F46904666
:103AA00001F050FB454806683E60D0E901321344FE
:103AB00001339B1B824600F21C4600F5836900F22D
:103AC0001447AB421AD30022B8F1000F6FD0052380
:103AD00063F3070264F38912DAF80010DAF80830A9
:103AE0000B4003330D444AF823200020CAF800504D
:103AF00001F02AFB012005B0BDE8F08F012130461E
:103B0000FCF70EFC4846FCF724FC3846FCF721FC89
:103B1000DAF80400DAF808B0009000EA0B0003308D
:103B20000AEB80006946FFF795FF009B50BB0BEA4C
:103B300003020AEB820203F1020CD2680192013304
:103B400003EA0B0B0AEB8B0B02F00302012ACDF800
:103B500000C0DBF80C1022D0022A16D0834638466B
:103B6000FCF7FAFB10B1009BCAF804305946304606
:103B7000FCF7D6FBDAE901231344DAF8002001331D
:103B80009B1A9EE70BEA0300C9E7BDF806309B09C4
:103B900003334FEA114B0CEB93030093DFE7BDF8BF
:103BA0000430C3F383134FEA114B6344F5E7062354
:103BB00063F3070264F39F528EE700BF1C040020EA
:103BC00030B50A4B0A4A0B49D21AD20800239A424E
:103BD00001D1052006E031F823500468A54202D146
:103BE0000360002030BD0133F1E700BFE0B5000005
:103BF00090B60000480100202DE9F84F224B2348E1
:103C0000FF229A600022C3F81824C3E90022C3F8F7
:103C1000142483F8202400F028FC814688B91C482D
:103C20001C4E1D4CDFF87CA000F044FDA41BE408F2
:103C30004D46A54208D10023184A19481946A34207
:103C40001BD14846BDE8F88F4FF00008474606EB09
:103C5000C50BBD420AD0142256F83710DBF800001D
:103C600004F0A4FB0028C8BF08F101080137BC42DA
:103C7000EFD12AF825800135DBE720F8231042F840
:103C8000041B0133DBE700BF1C04002090B70000D9
:103C9000149A0000E0B5000090B600001402002065
:103CA0004A0100204801002007B5019031B9019A6E
:103CB000064B53F8320003B05DF804FB01A8FFF790
:103CC0007FFF0028F3D00020F5E700BFE0B500003B
:103CD000094B013903EBC000032909D8DFE801F0E3
:103CE0000A02040604207047007970474079704743
:103CF0000020704702207047E0B5000030B5114C3D
:103D000000EB400054F821508240072383406A4072
:103D10001A400D4B6A40C2F3821044F8212003EB95
:103D20008101C2F3C203834238BF0346C2F342207B
:103D3000834202F0070238BF03469A4238BF1A4650
:103D40004A8030BD1402002048010020034BD3E913
:103D50000030C31A58425841704700BF1C0400206D
:103D60002DE9F04F85B0FFF7F1FF0646002840F03F
:103D700016818C4DC5F81804BFF34F8F6868AC6886
:103D800000902040033005EB80006946FFF762FE9B
:103D9000009B18B1D5F81824002A66D004EA030263
:103DA000991C013305EB8202234005EB8303D268A3
:103DB000DB68029302F00303022B0192009169D1A8
:103DC000BDF8063078489DF804604FEA931ABAF1BE
:103DD000500FD14628BF4FF0500969F38F1309F1F6
:103DE0000801ADF8063000F058FBC6F3C206804665
:103DF000002800F0BB8000F07FFB01A9002308220F
:103E0000404600F08CFB009924EA01070137BF000F
:103E1000B94538D95FFA89F997B3FFB2A9EB070919
:103E2000214003315FFA89FBB946604F05EB810100
:103E300008234A46404600F072FB37B109F10803F7
:103E40005A463946404600F06AFB009B0AF1030AD5
:103E500003EB9A030093D5F81834002B50D1D5F812
:103E60001044DFF85C9107276FE02A689A4204D873
:103E70006A60304605B0BDE8F08F04EA030081E7D0
:103E80004A49BB46D4E72140033108234A4605EBA3
:103E90008101D7E7012B69D1BDF804604248C6F320
:103EA0008311062928BF062161F389160231890092
:103EB000ADF8046000F0F1FAC6F3C20680460028AF
:103EC00054D000F019FB0023082201A9404600F05D
:103ED00026FB0027BDF80420C2F38312BB009742E3
:103EE00003F10803B7D200994A1C21400331009224
:103EF00005EB81010422404600F011FB0137E9E7A0
:103F0000404600F0FDFAFFF721FF80F00100C6B245
:103F1000AFE7E3685A79B2B11B79BDF8081003EB3B
:103F2000430259F8211007FA02F3052E03EA0103B0
:103F300023FA02F308BF0326B34204D323684146A1
:103F40001B6820469847E3681C68002CE1D1404676
:103F500000F0D6FA204601F0F5F8D5F818340BB980
:103F6000009B6B60002001F0EFF8CCE7D5F810441F
:103F700074B90F4B5B88012BC5D90E4B0E480F4906
:103F8000C01AC008000440F0020000F073F8BAE75D
:103F9000236820469B689847E3681C68E8E700268A
:103FA00067E700BF1C04002090B700002804002031
:103FB00054010020E0B50000F8B50000209A000090
:103FC000140200202DE9F74F284C80460F469246F8
:103FD00001A9012218469B46D4F80890FFF758FD26
:103FE00080B3019D0026A91C5E4506EB010233D17A
:103FF00000211F48FCF75EF980F310006A1C02EAFA
:10400000090204EB8202000405EA0903033340EAD3
:104010001840D06014F8232068F3C50204F8232068
:1040200034F8232066F3891224F8232054F823203F
:1040300067F39F2244F8232002F0F80242F00102C5
:1040400004F8232094F820341BB1FFF789FE0028E0
:10405000FBD103B0BDE8F08F09EA020204EB820253
:104060005AF82630D3600136BEE700BF1C0400209A
:104070003808002000231A46FFF7A4BF07B5012324
:10408000019201AAFFF79EFF03B05DF804FB07B59C
:10409000CDE9002302236A46FFF794FF03B05DF8E1
:1040A00004FB1FB5CDE90123069B039301AA03235B
:1040B000FFF788FF05B05DF804FB1FB5CDE90023CD
:1040C000069B0293079B03936A460423FFF77AFF3C
:1040D00005B05DF804FB7FB5CDE90123089B039390
:1040E000099B04930A9B059301AA0523FFF76AFF26
:1040F00007B05DF804FB00002DE9F8431E4B88462D
:10410000D3F81014054600240A46A2B9E9680C71D8
:10411000D3F81014A9B9C3F81054EB681A60174B00
:10412000174EF61AF608002703F10709B74211D116
:104130002046BDE8F883D2681079A04216D01268F4
:10414000E3E7C968EA6809681160D3F81034DB68EE
:104150001D60E4E719F83720EB684245394628BF6F
:1041600042461879FFF7CAFD0137DFE701340A2C10
:10417000CAD14FF0FF34DBE71C040020E0B500009B
:1041800090B6000038B5094A0123D2F8104482F8ED
:1041900020341D4604B938BDE3685D7123682046AC
:1041A0005B689847E3681C68F4E700BF1C040020C4
:1041B00010B5037A052B0C460FD0437A23B1084A79
:1041C0000849204601F006F90749204601F002F9A6
:1041D0002046BDE8104001F0F2B8002AF8D0F3E71D
:1041E000789A0000E48E00008688000073B5C388CA
:1041F00004460D4633B1144A00921449144A284625
:1042000001F0E8F8217A05291CD0637A4BB1A08827
:10421000FFF75EFD0F4B104953F82020284601F0B0
:10422000D9F8227A0D4BA08853F822600021FFF7BD
:104230003BFD0B4903463246284602B0BDE87040BC
:1042400001F0C8B802B070BD789A0000859A0000ED
:104250007D9A0000489A0000E48E0000A89A0000B1
:104260009D9A00002DE9F04385B01F460C9D002368
:1042700006460C46904695F80C902B732946384616
:10428000FFF7B4FFB8F1060F09D8DFE808F0041211
:10429000181F283340003146284601F09BF80022C1
:1042A00029463846FFF784FF85F80C9005B0BDE835
:1042B000F08322683146284601F08CF8EFE7D4E914
:1042C00000233146284601F085F8E8E7A36800930B
:1042D0003146D4E90023284601F07CF8DFE7E368A3
:1042E0000193A36800933146D4E90023284601F0E6
:1042F00071F8D4E723690293E3680193A3680093FC
:104300003146D4E90023284601F064F8C7E7636921
:10431000039323690293E3680193A36800933146F2
:10432000D4E90023284601F055F8B8E708292DE91B
:10433000F84F80460E4617461C463BD8002593F89A
:104340000C901D7319461046FFF750FFDFF88CA044
:10435000DFF88CB0AE422FD918F805205946204618
:1043600001F038F80135082DF4D11949194DDFF85D
:1043700074B0204601F02EF84FF0000A564522D9BD
:1043800018F80A207E2A1CD812F80B1011F0970F8B
:1043900008BF2E221049204601F01CF80AF1010A3C
:1043A000BAF1080FEAD1012221463846FFF700FF93
:1043B00084F80C90BDE8F88F5146204601F00AF8C9
:1043C000D0E72E22E6E72946204601F003F8E5E78C
:1043D000769A0000749A0000F98A0000729A000030
:1043E0006C9A0000B7B400002DE9F047B0F80690D1
:1043F0004479D2F800A09DF8208009FB04F4043C25
:1044000006460AEB0300A0420F4688BFA4EB030A4E
:10441000191DC2F800A0B1FBF9F509FB15114DB942
:10442000A9EB0104544528BF5446BAF1000F04D14A
:10443000BDE8F0873668013DF1E704317B1970185B
:104440002246B8F1000F0ED001461846AAEB040A26
:1044500003F0D2FDD145254436684C464FF00001AB
:1044600028BF5446E1E71946F0E7FCF703B8F8B572
:1044700046790146721E0546002393422D6803D3F8
:104480000024A64202D8F8BD0133F6E70F6828469B
:10449000FCF729F801343946F3E72DE9F843CD1C40
:1044A000868A0746FBF7FDFF043E35440446B5FB0C
:1044B000F6F5F0B14FF48073EDB28380C680013D14
:1044C000076081464FF00008A84512D23846FBF736
:1044D000E8FF064648B163790133637108F10108CA
:1044E000C9F8000007608146EEE72046FFF7BFFFEE
:1044F00034462046BDE8F88301210430FBF710BFA5
:1045000010B5012104460430FBF715FF10F0FF0F32
:1045100004D12046BDE81040FFF7A9BF10BD1FB56C
:1045200003920022009203AAFFF75EFF05B05DF838
:1045300004FB1FB503920122009203AAFFF754FF68
:1045400005B05DF804FB7047026813685268934237
:1045500091BFD01A80680130801888BFC01A704798
:10456000036881681A685B688B4234BF013300239B
:10457000D31A584258417047F8B5044600200D46FA
:1045800000F0E0FD2046FFF7EBFF10B1237C002B8D
:104590003DD12168A6684B684A68B24234BF0132F7
:1045A00000224A6038B12168A0680A68824234BF9C
:1045B000013200220A60E2686068511E072920D893
:1045C000DFE801F004101F141F1F1F182A78C254BF
:1045D0002046FFF7B9FF23689A68824200D29860AC
:1045E000002415E02A8820F81320F1E72A6840F813
:1045F0002320EDE7D5E9006700EBC300C0E90067C1
:10460000E6E7294602FB030003F0F6FCE0E704249A
:10461000002000F099FD2046F8BD036818685B682B
:10462000C31A58425841704770B5054600200C46E1
:10463000164600F087FD2846FFF7EFFF002830D12F
:1046400029680B682EB90A68A868824238BF561CD0
:104650000E60EA686968501E07281CD8DFE800F081
:10466000040C1B101B1B1B14CB5C237000240020AC
:1046700000F06AFD204670BD31F813302380F5E765
:1046800051F823302360F1E701EBC301D1E90023A6
:10469000C4E90023EAE703FB0211204603F0ACFC67
:1046A000E4E70524E3E7036898687047036800229D
:1046B0009A60704782680023936082681361826801
:1046C00053618268D3608268536082681360704768
:1046D000F8B505460F4616461C4683B9AB686868B0
:1046E000D3E9031300F1010CCA1A62450ED1002769
:1046F000376014B3A868FBF732FE0020F8BD80686D
:10470000FBF724FE0028E9D01120F7E701EA0002B8
:104710001840824236BF6344ACEB02035B1A316837
:10472000994294BF316033602B6813443B60AA68A0
:104730003168D3680B44D360DFE72046DEE738B545
:10474000846843682569A26801332B449B1A8B4215
:104750000CD30A44A26083689A68DA608068FBF729
:10476000FBFD002814BF0020082038BD0420FCE712
:104770002DE9F84F0546806888469146FBF7E6FD2F
:10478000824690BBD5E901431A699B680134144401
:10479000E41AD9F800309C4228BF1C46C9F80040F2
:1047A000D5E901739E683E400137A7EB060B5C45D7
:1047B00009D92868414630445A4603F01DFCF61BCF
:1047C0003444D8445646286822464146304403F0D3
:1047D00013FCAA68D9F8001093680B449360A8688A
:1047E000FBF7BDFD0020BDE8F88F1120FBE72DE9A8
:1047F000F8430646884617461C467BB9B3689A6854
:104800005D69B2EB050911D1C7F8009044B3B068F7
:104810000430FBF7A4FD0020BDE8F8838068043075
:10482000FBF794FD0028E9D01120F5E770683B689C
:104830000540024095420DD2994501D2C7F800903B
:1048400033681D44C8F80050B268396853690B4496
:104850005361E0E70130401B984238BF3860EFE712
:104860002046D9E72DE9F0410646806804308846A5
:104870001746FBF76BFD78BBB3689D681B69ED1AA3
:104880003B689D4228BF1D463D60D6E90132116953
:10489000946819401C40A14228BF5C1C641AA542C0
:1048A00008D9336840461944224603F0A5FB2D1B66
:1048B000A044002133682A461944404603F09CFB7B
:1048C000B268396813690B441361B0680430FBF7B0
:1048D00046FD0020BDE8F0811120FBE710B582689D
:1048E00013699468E41A8C420AD30B4413618368F9
:1048F0001A695A6180680430FBF731FD002010BD51
:104900000420FCE770B5446806460D46206818B1DF
:10491000B3682946984718B923682B60256070BD95
:104920002468F3E74368186808B102681A607047A2
:104930004368186870474368186800B97047884230
:1049400003D102681A600120704703460068F4E74B
:1049500010B50D49A1F58C72914201D800200FE0ED
:104960008B1ADB1003EBD3735B1002EBC30452F81A
:104970003330834205D802D204F10802ECE76068C4
:1049800010BD2146E8E700BF549C000008B5FFF7C2
:10499000DFFF024B002808BF184608BD299B000016
:1049A000D0E90223D1E90201994208BF90422CBF0D
:1049B00001200020704700002DE900480C4800F05D
:1049C000E2FA0C4BD3E9002312EB000B43F1000C8D
:1049D000094BD3E900239C4508BF934558466146DF
:1049E00003D21BF180704CF10001BDE8008800BFCC
:1049F00030000020E00800204809002037B50546B7
:104A00000C460A4801A9FBF7C0FC60B10570446080
:104A100001A90648FBF7E3FC18B1054800F0B8FA15
:104A2000002003B030BD0420FBE700BF1C000020C5
:104A3000300000202DE930481A4B1B7804461BB982
:104A400000252846BDE830880028F9D090F82030AD
:104A500003F0FF05002BF3D0FFF7AEFFD4E90223EC
:104A6000994208BF904217D323690BB984F82030CC
:104A7000D4E90530984721690029E1D094F8203025
:104A800003F0FF05002BDBD0D4E9022312EB010B6E
:104A900043F1000CC4E902BC21460348FFF732FF92
:104AA000CFE700BFE8080020EC9F000013B5114BD2
:104AB000114918680190082358221048FBF752FC4E
:104AC000044698B90E4A0F4801A900F033F904468C
:104AD00060B901210B4800F037FA01230A4A09485E
:104AE000194600F093F9094B01221A70204602B0D2
:104AF00010BD00BFE69F0000EC0800201C00002055
:104B0000754B000030000020FFFF7F00E808002008
:104B10003AB103685A614A1E51425141196100205D
:104B200070470720704738B590F8203004460D468E
:104B300083B98261FFF740FF421941F10003C4E9E4
:104B40000223236903B1256121460020BDE83840D6
:104B5000FFF754BF002038BD0023014680F8203005
:104B60000120FFF74BBF0000014800F00CBA00BF66
:104B7000300000202DE9F04F85B0814600F0EDF9BE
:104B800040B15D4AD2E9003113F1807341F1000177
:104B9000C2E900310021484600F0EFF938B1574C26
:104BA000236823B12068FFF745FF0023236001211C
:104BB000484600F0E2F920B1FFF7FEFE504BC3E992
:104BC000000103A94F484D4D4F4CDFF84081FBF7E2
:104BD00016FC002847D1DFF830A1484CDFF830B18F
:104BE0005046FFF7A5FE236800287AD083B12368DA
:104BF000D0E90201D3E90223994208BF90422FD2A3
:104C0000236893F820301BB121685046FFF77AFEE5
:104C10005046FFF787FED0E9028305460193FFF770
:104C2000CBFE019BB8EB000663EB0107012E77F189
:104C3000000349DBDFF8DC80464543D9FFF794FFEA
:104C400000EB08024FF496230021584600F002F9C9
:104C5000002841D1236813B9484600F0CFF82560F9
:104C600005B0BDE8F08F0378012B20D05BB1022B9B
:104C700014D14FF0000A2046FFF754FE002836D02A
:104C800080F820A0F7E7436893F8202032B901228A
:104C900083F8202041682046FFF734FE03A9194815
:104CA000FBF7D8FB03A91748FBF7A9FB91E741687D
:104CB0002B68994202D100232B60EFE72046FFF7D3
:104CC0003AFEEBE7AA68BDE70021584600F04AF932
:104CD0002846FFF7AFFE01E00D28F9D0002323603E
:104CE0007EE7002BBCD1484600F08CF8B8E70123E2
:104CF00088F80030D2E700BFE0080020500900200B
:104D0000480900201C000020EC9F0000E80800205B
:104D100030000020FF4FFB00435882B03BB100231E
:104D2000435043580193019B012002B0704718463D
:104D3000FBE7000070B5284C4379284D44F8232048
:104D4000274C04EBC3031B7973B16B88012B09D982
:104D50002448254B2549C01AC008000440F0020031
:104D6000FFF788F9082070BD03680A88C3F8082592
:104D700090F904308A78002B4FEA4212AFBF03F15A
:104D8000604303F00F031A49D2B2A9BF03F5614390
:104D9000CA54D2B283F8002390F9043015495E0951
:104DA000012203F01F0302FA03F341F8263043798E
:104DB00004EBC30144F833006B880A71022B09D954
:104DC0000848094B0C49C01AC008000440F0030011
:104DD000FFF750F90020C6E75C0900205C010020C5
:104DE0005409002008B60000E0B5000026A000002D
:104DF00014ED00E000E100E048A00000036801229B
:104E00001A607047036801225A607047F7B5056859
:104E10004FF480348C40C5F808430568C5F8484312
:104E200001F15005AD000668ADB200277751755904
:104E30000195019D056801F5A87122F07F4245F8B2
:104E400021200268C2F8444313B10368C3F8044345
:104E500003B0F0BD2DE9F34799464FF4803803685D
:104E600008FA01F8C3F848830368C3F8088322F0FE
:104E70007F4502680E46D2F8041502EB860206F161
:104E80005007D2F84035C2F84015BF00BFB20268E3
:104E90004FF0000A42F807A05B1AD259009223F0A3
:104EA0007F43012B0446009A0BD1264B4FF48060C0
:104EB00043F001039847236843F807A0DB590193A7
:104EC000019B2368D3F80475C3F84483EB1B23F0DC
:104ED0007F43012B06F5A876236819D1013543F8E5
:104EE0002650184B4FF4806043F001039847236825
:104EF000D3F804359F4209D12368C3F8448323685B
:104F00000020C3F8048302B0BDE8F0870D20FAE763
:104F100043F826502068D0F804156A1A013AC9F1FE
:104F2000FF1322F07F4203F57F439342EED3002A22
:104F3000E2D1013540F826502368D3F80435994270
:104F4000D9E700BF20A0000002680223C2F8443362
:104F500011B10268C2F8043370474FF482710068DF
:104F6000FFF7DABE4FF4803303FA01F10368C3F8A8
:104F700048130368C3F8081370475031890089B299
:104F80000068FFF7C9BE0368D3F804057047000046
:104F900090F9043001215A0903F01F0301FA03F3C9
:104FA0004032024941F82230704700BF00E100E082
:104FB000024B034A1B681068184700BF5C090020B9
:104FC0005409002082B001238DF807309DF8073086
:104FD000114B1860596044F2010188429A6012D066
:104FE00044F20201884206D1DA60DA6812889A61D6
:104FF000DA685268DA6172B69DF80730002BFBD18F
:1050000062B602B070471A611A6992685A611A69E9
:1050100012689A611A69ECE76009002000B583B054
:1050200002900091019244F2010071466A4600F03C
:1050300003F803B000BD00002DE9F043064685B03B
:105040000F46154672B6FFF79DF8FEF789FE002859
:10505000FBD1DFF8C88044F201029642B8F8023072
:105060001DD044F2020296423BD15BB1244B25484D
:105070006A682549C01AC00800042B8840F0010066
:10508000FFF705F8214B1B68DB0700D500BE2A4659
:105090003946304605B0BDE8F043FFF793BF002B1B
:1050A000F0D0174BD5F80890164C4846E41AE4089F
:1050B000FFF76CFC2B680297019324046B68009344
:1050C00044F0010403464A4611492046FFF703F81D
:1050D000B8F80230002BD5D00E492046FEF7CAFFA3
:1050E000D0E7002BCED0064B06480B49C01AC008AB
:1050F00000043A4640F00100FEF7C0FFC2E700BFDF
:10510000E0B50000F8B500005AA00000F0ED00E0A6
:1051100074A000009AA00000AEA00000540100207E
:1051200072B6024A13680133136070478009002089
:10513000034A1368013B136003B962B6704700BFAE
:1051400080090020FFF7ECBFFFF7F2BF0B0706D581
:10515000034BC35C03F00303012B08BF20307047EF
:10516000B7B400002DE9F04F87B08A461446029389
:10517000054618B9012007B0BDE8F08F0029F9D025
:10518000029B002B00F0148104F004030A460493F0
:10519000A846214618F8010BFFF7D8FFC0B23F28F8
:1051A0000646177822D00ADCC0B12A2835D021461D
:1051B00038460132FFF7CAFF86421ED0DAE75B2885
:1051C0007AD05C28F3D1E307F1D46878FFF7BEFF0B
:1051D000C6B2002EEBD005F10208E8E7E40601D5DF
:1051E0002F2FC8D0381C18BF0120C4E7002FC1D012
:1051F0002F2F04D1A107BDD401324546C8E72E2F79
:10520000FAD1049B002BF7D05245B3D0A307F3D5B6
:1052100012F8013C2F2BEFD1ACE76878FFF796FF2F
:10522000C1B22A2918D02E2F09D1049B3BB1524577
:10523000A0D0A70703D512F8013C2F2B9AD079B93B
:1052400014F0020097D0E60600F1B4802F2110463A
:1052500003F085F80030C6E7214618F8010FDDE7B6
:105260002F2901D1A50720D4029B15465F1E24F0EB
:10527000040904F0020AAB4621469BF80000FFF740
:1052800065FFC6B20135002E3FF474AF3B464A4677
:1052900059464046FFF766FF01287FF46CAF2F2E7A
:1052A000E9D1BAF1000FE6D064E7104603F057F8F1
:1052B00002460028A1D15DE7002F3FF45BAF2F2FFE
:1052C00002D1A0073FF556AF21463846FFF73EFF13
:1052D0000090B8F1000F3FF44DAF6B78212B01D057
:1052E0005E2B26D1023501230193012304EA030139
:1052F0004FF0000B03912E46214616F8010B059343
:10530000FFF724FF5FFA80F9B9F15D0F059B13D118
:105310002BBB019B5B453FF42DAF002E3FF42AAF22
:10532000711C03D15B2F7FF425AF46460132B04696
:1053300063E745460023D7E7B9F12F0FF2D0B9F163
:105340005C0F08D1039B53B921466878FFF7FEFE36
:10535000AE1C5FFA80F9B9F1000F3FF40BAF337860
:105360002D2B1ED121467078FFF7F0FEC0B2C0B1E0
:105370005D2816D05C2806F1020509D1039B3BB9D4
:10538000B078FFF7E3FEC0B2F51C00283FF4F2AEA0
:10539000009B4B4503DB8342D8BF4FF0010B00233A
:1053A000A9E7009B35464B4508BF4FF0010BF6E7D8
:1053B0000320E0E60846DEE64023FFF7D3BE10B543
:1053C000826804462AB1436901680069984700234E
:1053D000A36010BD0EB403B5039921B104AB01AABB
:1053E000019300F075F802B05DF804EB03B070476C
:1053F0000A2938B504460D4602D10D21FFF7F8FF02
:10540000A3682268591CA160D554D4E901329A429C
:1054100004D32046BDE83840FFF7D1BF38BD0000B7
:105420002DE9F84F9946DDE90A431746824688463A
:105430000A460126BA420FD24E4538BF4E4613F0F7
:10544000010B01D164B900240125B9F1010F1AD96A
:1054500009F1FF397D43F8E7B2FBF7F20136E9E7DE
:105460009B070ED5B9F1000F0CBF30252025A642B1
:10547000EAD2013C29465046FFF7BAFF002CF6D18C
:10548000E1E72025F3E7B8FBF5F39F42E2D9DFF827
:105490003C90B8FBF5F3504619F8031005FB138850
:1054A000FFF7A6FFB5FBF7F3BD4207D2BBF1000F34
:1054B00002D00CB1A64203D3BDE8F88F1D46E8E741
:1054C00020215046013CFFF793FFF2E7C6A0000001
:1054D0002DE9F74F054617468846002900F031812F
:1054E00018F8011B49B92B7B002B00F02A812846B4
:1054F00003B0BDE8F04FFFF762BF252940F0C08040
:10550000002698F800302D2B424608F1010823D0E0
:10551000302B24D02B2B25D000242A2B02F1010183
:1055200023D13B681A1D3A601B680A461C44137855
:105530002E2B26D101324FF0000A104610F8011B25
:10554000A1F1300CBCF1090F1DD80A2303FB0A138B
:10555000A3F1300A0246F0E746F00106D1E746F033
:105560000206CEE746F00406CBE711F8013CA3F1B2
:1055700030000928DBD80A2202FB0434303C0A46FA
:10558000CBE74FF0000A12F8011B01F0FB0068287E
:105590009046F8D069290ED04AD8582964D006D848
:1055A00025296DD098F80030002B99D19BE763290D
:1055B00062D06429F6D13A68111D3960D2F80090A2
:1055C00089EAE972A2EBE9724FF0010B092A5BDC70
:1055D000D34538BFD3462CB1B9F1000F01DB7107B9
:1055E00000D5013CB20702D5BAF1000F04D0F30791
:1055F00002D4002C4ED10024B9F1000F52DAC9F1C7
:1056000000092D212846FFF7F3FE06F00302022AC7
:1056100005D1BAF1000F02D1002C47D10024CDE909
:10562000004653460A2249462846FFF7F9FEB9E7E5
:1056300073294CD014D87029B4D13B681A1D3A6034
:10564000302128461C68FFF7D3FE78212846FFF753
:10565000CFFE00220823CDE9003221461022E3E7E5
:1056600075292BD078299DD139680A1D3A60CDE97A
:1056700000465346102228E03B681A1D3A6019780C
:105680002846FFF7B5FE8DE70A230BF1010BB2FBAD
:10569000F3F29BE7A345AFD220212846013CFFF758
:1056A000A7FEA6E77007B0D52B21ABE7A345B6D27E
:1056B00030212846013CFFF79BFEADE73968CDE974
:1056C00000460A1D3A6053460A220968ACE73B6867
:1056D0001A1D3A60F107D3F8009020D4B9F1000FF9
:1056E00025D0484602F05AFE0646B44200D9C4B955
:1056F00009F1FF3920E028460136FFF779FE19F855
:1057000006100029F7D1A642BFF44CAF002C3FF49D
:1057100049AF20212846013CFFF76AFEF3E7002647
:10572000EDE720212846013CFFF762FEDDE74E460B
:10573000DBE72846FFF75CFE19F8011F0029F8D1C6
:1057400030E703B0BDE8F08F0369C1688B429DBFAD
:105750008268D21802F1FF3203F1FF3394BF501A6E
:10576000581A70472DE9F041D0E9027405463E1BF6
:105770004068964220448846144404D902F03CFC18
:10578000EC60BDE8F0813246E41B02F035FC2246B5
:1057900008EB06016868F1E72DE9F843C56806469D
:1057A000894617464FF000083469B3687068A5420F
:1057B00028BFE418013C621B5C1BBC4228BF3C466E
:1057C000944228BF144649462844224602F014FC5D
:1057D000B3682544AB4208BF00253F1BA044A14449
:1057E000F560E1D14046BDE8F883000010B5114CEA
:1057F000114AA2610223C4E90433104BE361A2649D
:105800004FF400730E4A2362E264002310220D4914
:10581000A362E01D6362E362A3656365E3652265DD
:1058200002F0B4FD0849204602F0B0FD2023A37128
:1058300010BD00BF50120020D6A000009409002027
:1058400084090020DFA00000E3A00000F8B5184C98
:10585000182300FB033503FB00402544C46A012CD8
:105860000F46164611D024B1022C1BD0002420462E
:10587000F8BD2846FFF768FFB042F8D332463946F4
:105880002846FFF76FFF3446F1E72846FFF75CFF35
:105890008642344628BF0446224639462846FFF74A
:1058A00061FFE4E72846BDE8F840FFF775BF00BF99
:1058B00050120020FFF79ABF38B5074C051E04F1BF
:1058C000080318BF1C4623682BB11A6822605B6866
:1058D00028469847F7E738BD9C0B002020B9054BB8
:1058E00001225A70FFF7E8BF012802D1014A9070E7
:1058F000F8E77047940B002038B5094C23786BB952
:1059000008486360A3602361E36000F079F805460E
:1059100000F082F801232370284638BD8525FBE777
:10592000940B0020DD58000038B5134CA3780546D1
:1059300003F0FF0073B115B16B6801209847002098
:10594000FFF700FCE3680133E3600020BDE8384066
:10595000FFF7FABBFFF7F6FB25B1226913463BB907
:105960002A602561E368002BECD100F06BF8E9E7D1
:105970009D42F7D01B68F2E7940B00201FB5037817
:105980008DF800304368019383688DF80830C36850
:105990000393054A054B684653F8213052F821100D
:1059A000984705B05DF804FBA80B0020B00B002061
:1059B000F0B506460F4B16F8047B43F827200E4B34
:1059C00094460C460A6943F827200FCC89B06D46EF
:1059D0000FC594E80F00BCF1000F85E80F00074ADF
:1059E000049708BF00226946304600F0CDFA09B09E
:1059F000F0BD00BFB00B0020A80B00207D590000B7
:105A0000044A137923B90121106091801846704728
:105A100085207047B80B0020084B1A68D2075FBF7B
:105A2000C02283F8002301221A604FF08042012334
:105A3000C2F81835024A1370704700BF00E100E059
:105A4000C8120020074B00221A6082B01B68019325
:105A5000019B4FF080430222C3F8042301229A6085
:105A600002B070470401004007B5154B1A687AB1BF
:105A700000221A601B680093009B4FF080430122B4
:105A8000C3F808230F4B587910B95A711B6898470F
:105A90000D4B1A6882B100221A601B680193019BAA
:105AA0004FF080430222C3F80823064B1B680120F5
:105AB00003B05DF804EB184703B05DF804FB00BFCA
:105AC00000010040B80B00200401004000F18040BC
:105AD00000F5C040002382B0036003680193019B7E
